:1000000045C000004BC0000049C0000047C00000D0
:1000100045C0000043C0000041C000003FC00000D8
:100020003DC000003BC0000039C0000037C00000E8
:1000300035C0000033C0000031C000002FC00000F8
:100040002DC000002BC0000029C0000027C0000008
:1000500025C0000023C0000021C000001FC0000018
:100060001DC000001BC0000019C0000017C0000028
:1000700015C0000013C0000011C000000FC0000038
:100080000DC000000BC0000009C0000011241FBEFD
:10009000CFEFD0E4DEBFCDBF1CD026C0B1CF8823C8
:1000A00011F05E9A08955E980895EAE7F0E0808185
:1000B00080648083808186FDFDCF809179008531C9
:1000C00020F080E090E0EBCF089581E090E0E7CF72
:1000D00008958FEF8AB917B880E480937C0087E891
:0C00E00080937A00E2DFFECFF894FFCF9F
:00000001FF
